{
  "contractName": "DocumentStorage",
  "abi": [
    {
      "inputs": [],
      "stateMutability": "nonpayable",
      "type": "constructor"
    },
    {
      "anonymous": false,
      "inputs": [],
      "name": "AllDocumentsRemoved",
      "type": "event"
    },
    {
      "anonymous": false,
      "inputs": [
        {
          "indexed": false,
          "internalType": "string",
          "name": "documentId",
          "type": "string"
        },
        {
          "indexed": false,
          "internalType": "uint256",
          "name": "version",
          "type": "uint256"
        }
      ],
      "name": "DocumentDeleted",
      "type": "event"
    },
    {
      "anonymous": false,
      "inputs": [
        {
          "indexed": false,
          "internalType": "string",
          "name": "documentId",
          "type": "string"
        },
        {
          "indexed": false,
          "internalType": "string",
          "name": "newDocumentHash",
          "type": "string"
        },
        {
          "indexed": false,
          "internalType": "uint256",
          "name": "version",
          "type": "uint256"
        }
      ],
      "name": "DocumentHashModified",
      "type": "event"
    },
    {
      "anonymous": false,
      "inputs": [
        {
          "indexed": false,
          "internalType": "string",
          "name": "documentId",
          "type": "string"
        },
        {
          "indexed": false,
          "internalType": "string",
          "name": "documentHash",
          "type": "string"
        },
        {
          "indexed": false,
          "internalType": "uint256",
          "name": "version",
          "type": "uint256"
        }
      ],
      "name": "DocumentHashStored",
      "type": "event"
    },
    {
      "anonymous": false,
      "inputs": [
        {
          "indexed": false,
          "internalType": "address",
          "name": "user",
          "type": "address"
        },
        {
          "indexed": false,
          "internalType": "enum DocumentStorage.Role",
          "name": "role",
          "type": "uint8"
        }
      ],
      "name": "RoleAssigned",
      "type": "event"
    },
    {
      "inputs": [
        {
          "internalType": "address",
          "name": "",
          "type": "address"
        }
      ],
      "name": "userRoles",
      "outputs": [
        {
          "internalType": "enum DocumentStorage.Role",
          "name": "",
          "type": "uint8"
        }
      ],
      "stateMutability": "view",
      "type": "function",
      "constant": true
    },
    {
      "inputs": [
        {
          "internalType": "uint256",
          "name": "",
          "type": "uint256"
        }
      ],
      "name": "users",
      "outputs": [
        {
          "internalType": "address",
          "name": "",
          "type": "address"
        }
      ],
      "stateMutability": "view",
      "type": "function",
      "constant": true
    },
    {
      "inputs": [
        {
          "internalType": "string",
          "name": "documentId",
          "type": "string"
        },
        {
          "internalType": "string",
          "name": "documentHash",
          "type": "string"
        }
      ],
      "name": "storeDocumentHash",
      "outputs": [],
      "stateMutability": "nonpayable",
      "type": "function"
    },
    {
      "inputs": [
        {
          "internalType": "string",
          "name": "documentId",
          "type": "string"
        }
      ],
      "name": "getDocumentHash",
      "outputs": [
        {
          "internalType": "string",
          "name": "",
          "type": "string"
        }
      ],
      "stateMutability": "nonpayable",
      "type": "function"
    },
    {
      "inputs": [],
      "name": "getAllDocumentHashes",
      "outputs": [
        {
          "internalType": "string[]",
          "name": "",
          "type": "string[]"
        },
        {
          "internalType": "string[]",
          "name": "",
          "type": "string[]"
        }
      ],
      "stateMutability": "view",
      "type": "function",
      "constant": true
    },
    {
      "inputs": [
        {
          "internalType": "string",
          "name": "documentId",
          "type": "string"
        },
        {
          "internalType": "string",
          "name": "newDocumentHash",
          "type": "string"
        }
      ],
      "name": "modifyDocumentHash",
      "outputs": [],
      "stateMutability": "nonpayable",
      "type": "function"
    },
    {
      "inputs": [
        {
          "internalType": "string",
          "name": "documentId",
          "type": "string"
        }
      ],
      "name": "deleteDocument",
      "outputs": [],
      "stateMutability": "nonpayable",
      "type": "function"
    },
    {
      "inputs": [],
      "name": "removeAllDocuments",
      "outputs": [],
      "stateMutability": "nonpayable",
      "type": "function"
    },
    {
      "inputs": [
        {
          "internalType": "address",
          "name": "user",
          "type": "address"
        },
        {
          "internalType": "enum DocumentStorage.Role",
          "name": "role",
          "type": "uint8"
        }
      ],
      "name": "assignRole",
      "outputs": [],
      "stateMutability": "nonpayable",
      "type": "function"
    },
    {
      "inputs": [],
      "name": "getAllRoles",
      "outputs": [
        {
          "internalType": "address[]",
          "name": "",
          "type": "address[]"
        },
        {
          "internalType": "enum DocumentStorage.Role[]",
          "name": "",
          "type": "uint8[]"
        }
      ],
      "stateMutability": "view",
      "type": "function",
      "constant": true
    },
    {
      "inputs": [
        {
          "internalType": "string",
          "name": "documentId",
          "type": "string"
        }
      ],
      "name": "getDocumentOwner",
      "outputs": [
        {
          "internalType": "address",
          "name": "",
          "type": "address"
        }
      ],
      "stateMutability": "view",
      "type": "function",
      "constant": true
    },
    {
      "inputs": [
        {
          "internalType": "string",
          "name": "documentId",
          "type": "string"
        }
      ],
      "name": "getDocumentHistory",
      "outputs": [
        {
          "components": [
            {
              "internalType": "string",
              "name": "version",
              "type": "string"
            },
            {
              "internalType": "string",
              "name": "timestamp",
              "type": "string"
            },
            {
              "internalType": "enum DocumentStorage.Action",
              "name": "action",
              "type": "uint8"
            },
            {
              "internalType": "string",
              "name": "documentHash",
              "type": "string"
            },
            {
              "internalType": "address",
              "name": "user",
              "type": "address"
            }
          ],
          "internalType": "struct DocumentStorage.DocumentHistory[]",
          "name": "",
          "type": "tuple[]"
        }
      ],
      "stateMutability": "view",
      "type": "function",
      "constant": true
    },
    {
      "inputs": [
        {
          "internalType": "address",
          "name": "owner",
          "type": "address"
        }
      ],
      "name": "getDocumentsByOwner",
      "outputs": [
        {
          "internalType": "string[]",
          "name": "",
          "type": "string[]"
        }
      ],
      "stateMutability": "view",
      "type": "function",
      "constant": true
    },
    {
      "inputs": [],
      "name": "getAllUserFiles",
      "outputs": [
        {
          "internalType": "address[]",
          "name": "",
          "type": "address[]"
        },
        {
          "internalType": "string[][]",
          "name": "",
          "type": "string[][]"
        }
      ],
      "stateMutability": "view",
      "type": "function",
      "constant": true
    },
    {
      "inputs": [],
      "name": "getAllDocumentHistories",
      "outputs": [
        {
          "internalType": "string[]",
          "name": "",
          "type": "string[]"
        },
        {
          "components": [
            {
              "internalType": "string",
              "name": "version",
              "type": "string"
            },
            {
              "internalType": "string",
              "name": "timestamp",
              "type": "string"
            },
            {
              "internalType": "enum DocumentStorage.Action",
              "name": "action",
              "type": "uint8"
            },
            {
              "internalType": "string",
              "name": "documentHash",
              "type": "string"
            },
            {
              "internalType": "address",
              "name": "user",
              "type": "address"
            }
          ],
          "internalType": "struct DocumentStorage.DocumentHistory[][]",
          "name": "",
          "type": "tuple[][]"
        }
      ],
      "stateMutability": "view",
      "type": "function",
      "constant": true
    }
  ],
  "bytecode": "0x608060405234801561001057600080fd5b5060016000803373ffffffffffffffffffffffffffffffffffffffff1673ffffffffffffffffffffffffffffffffffffffff16815260200190815260200160002060006101000a81548160ff02191690836003811115610099577f4e487b7100000000000000000000000000000000000000000000000000000000600052602160045260246000fd5b02179055506001339080600181540180825580915050600190039060005260206000200160009091909190916101000a81548173ffffffffffffffffffffffffffffffffffffffff021916908373ffffffffffffffffffffffffffffffffffffffff16021790555061498c80620001116000396000f3fe608060405234801561001057600080fd5b50600436106100f55760003560e01c806372e6975211610097578063c3ba2cd911610066578063c3ba2cd914610283578063cb356d91146102a2578063ebe5cbf9146102d2578063f2bcac3d146102f1576100f5565b806372e69752146101c357806374d5e100146101f35780637ddfc7d414610223578063bb6ccd9414610253576100f5565b8063444f7e4b116100d3578063444f7e4b1461016257806348a5062b14610181578063630a195b1461018b578063635994f8146101a7576100f5565b806305678c6f146100fa578063365b98b2146101165780633796525f14610146575b600080fd5b610114600480360381019061010f9190613824565b610310565b005b610130600480360381019061012b9190613890565b61075a565b60405161013d91906140e9565b60405180910390f35b610160600480360381019061015b9190613824565b610799565b005b61016a610c5e565b6040516101789291906141f4565b60405180910390f35b610189610f0f565b005b6101a560048036038101906101a091906137a7565b61115e565b005b6101c160048036038101906101bc91906137e3565b61144d565b005b6101dd60048036038101906101d891906137e3565b611a72565b6040516101ea919061422b565b60405180910390f35b61020d6004803603810190610208919061377e565b611d82565b60405161021a919061424d565b60405180910390f35b61023d6004803603810190610238919061377e565b611da2565b60405161024a919061419b565b60405180910390f35b61026d600480360381019061026891906137e3565b61210a565b60405161027a9190614268565b60405180910390f35b61028b6123b5565b60405161029992919061412d565b60405180910390f35b6102bc60048036038101906102b791906137e3565b612992565b6040516102c991906140e9565b60405180910390f35b6102da6129da565b6040516102e89291906141bd565b60405180910390f35b6102f9612fe9565b604051610307929190614164565b60405180910390f35b813373ffffffffffffffffffffffffffffffffffffffff1660038260405161033891906140bb565b908152602001604051809103902060009054906101000a900473ffffffffffffffffffffffffffffffffffffffff1673ffffffffffffffffffffffffffffffffffffffff1614806104445750600160038111156103be577f4e487b7100000000000000000000000000000000000000000000000000000000600052602160045260246000fd5b6000803373ffffffffffffffffffffffffffffffffffffffff1673ffffffffffffffffffffffffffffffffffffffff16815260200190815260200160002060009054906101000a900460ff166003811115610442577f4e487b7100000000000000000000000000000000000000000000000000000000600052602160045260246000fd5b145b610483576040517f08c379a000000000000000000000000000000000000000000000000000000000815260040161047a9061431f565b60405180910390fd5b600060028460405161049591906140bb565b908152602001604051809103902080546104ae90614748565b905014156104f1576040517f08c379a00000000000000000000000000000000000000000000000000000000081526004016104e89061435f565b60405180910390fd5b8160028460405161050291906140bb565b90815260200160405180910390209080519060200190610523929190613522565b506000600160048560405161053891906140bb565b90815260200160405180910390208054905061055491906145c5565b905060048460405161056691906140bb565b90815260200160405180910390206040518060a0016040528061058884613283565b815260200161059642613283565b8152602001600160038111156105d5577f4e487b7100000000000000000000000000000000000000000000000000000000600052602160045260246000fd5b81526020018581526020013373ffffffffffffffffffffffffffffffffffffffff168152509080600181540180825580915050600190039060005260206000209060050201600090919091909150600082015181600001908051906020019061063f929190613522565b50602082015181600101908051906020019061065c929190613522565b5060408201518160020160006101000a81548160ff021916908360038111156106ae577f4e487b7100000000000000000000000000000000000000000000000000000000600052602160045260246000fd5b021790555060608201518160030190805190602001906106cf929190613522565b5060808201518160040160006101000a81548173ffffffffffffffffffffffffffffffffffffffff021916908373ffffffffffffffffffffffffffffffffffffffff16021790555050507f06ad4e5f5c43f514424a5a56c77026a1adefeb2fbba312a0b7dee1e3a15956e584848360405161074c9392919061428a565b60405180910390a150505050565b6001818154811061076a57600080fd5b906000526020600020016000915054906101000a900473ffffffffffffffffffffffffffffffffffffffff1681565b600160038111156107d3577f4e487b7100000000000000000000000000000000000000000000000000000000600052602160045260246000fd5b6000803373ffffffffffffffffffffffffffffffffffffffff1673ffffffffffffffffffffffffffffffffffffffff16815260200190815260200160002060009054906101000a900460ff166003811115610857577f4e487b7100000000000000000000000000000000000000000000000000000000600052602160045260246000fd5b148061091e575060026003811115610898577f4e487b7100000000000000000000000000000000000000000000000000000000600052602160045260246000fd5b6000803373ffffffffffffffffffffffffffffffffffffffff1673ffffffffffffffffffffffffffffffffffffffff16815260200190815260200160002060009054906101000a900460ff16600381111561091c577f4e487b7100000000000000000000000000000000000000000000000000000000600052602160045260246000fd5b145b61095d576040517f08c379a0000000000000000000000000000000000000000000000000000000008152600401610954906142ff565b60405180910390fd5b8060028360405161096e91906140bb565b9081526020016040518091039020908051906020019061098f929190613522565b50336003836040516109a191906140bb565b908152602001604051809103902060006101000a81548173ffffffffffffffffffffffffffffffffffffffff021916908373ffffffffffffffffffffffffffffffffffffffff160217905550600582908060018154018082558091505060019003906000526020600020016000909190919091509080519060200190610a28929190613522565b5060006001600484604051610a3d91906140bb565b908152602001604051809103902080549050610a5991906145c5565b9050600483604051610a6b91906140bb565b90815260200160405180910390206040518060a00160405280610a8d84613283565b8152602001610a9b42613283565b815260200160006003811115610ada577f4e487b7100000000000000000000000000000000000000000000000000000000600052602160045260246000fd5b81526020018481526020013373ffffffffffffffffffffffffffffffffffffffff1681525090806001815401808255809150506001900390600052602060002090600502016000909190919091506000820151816000019080519060200190610b44929190613522565b506020820151816001019080519060200190610b61929190613522565b5060408201518160020160006101000a81548160ff02191690836003811115610bb3577f4e487b7100000000000000000000000000000000000000000000000000000000600052602160045260246000fd5b02179055506060820151816003019080519060200190610bd4929190613522565b5060808201518160040160006101000a81548173ffffffffffffffffffffffffffffffffffffffff021916908373ffffffffffffffffffffffffffffffffffffffff16021790555050507fc993febe6605e253c422a0f8984e4056d4b64d01e292a34177b7ea5c7bd4fe8c838383604051610c519392919061428a565b60405180910390a1505050565b606080600060058054905067ffffffffffffffff811115610ca8577f4e487b7100000000000000000000000000000000000000000000000000000000600052604160045260246000fd5b604051908082528060200260200182016040528015610cdb57816020015b6060815260200190600190039081610cc65790505b50905060005b600580549050811015610e2f57600260058281548110610d2a577f4e487b7100000000000000000000000000000000000000000000000000000000600052603260045260246000fd5b90600052602060002001604051610d4191906140d2565b90815260200160405180910390208054610d5a90614748565b80601f0160208091040260200160405190810160405280929190818152602001828054610d8690614748565b8015610dd35780601f10610da857610100808354040283529160200191610dd3565b820191906000526020600020905b815481529060010190602001808311610db657829003601f168201915b5050505050828281518110610e11577f4e487b7100000000000000000000000000000000000000000000000000000000600052603260045260246000fd5b60200260200101819052508080610e279061477a565b915050610ce1565b5060058181805480602002602001604051908101604052809291908181526020016000905b82821015610f00578382906000526020600020018054610e7390614748565b80601f0160208091040260200160405190810160405280929190818152602001828054610e9f90614748565b8015610eec5780601f10610ec157610100808354040283529160200191610eec565b820191906000526020600020905b815481529060010190602001808311610ecf57829003601f168201915b505050505081526020019060010190610e54565b50505050915092509250509091565b60016003811115610f49577f4e487b7100000000000000000000000000000000000000000000000000000000600052602160045260246000fd5b6000803373ffffffffffffffffffffffffffffffffffffffff1673ffffffffffffffffffffffffffffffffffffffff16815260200190815260200160002060009054906101000a900460ff166003811115610fcd577f4e487b7100000000000000000000000000000000000000000000000000000000600052602160045260246000fd5b1461100d576040517f08c379a00000000000000000000000000000000000000000000000000000000081526004016110049061433f565b60405180910390fd5b60005b60058054905081101561112157600260058281548110611059577f4e487b7100000000000000000000000000000000000000000000000000000000600052603260045260246000fd5b9060005260206000200160405161107091906140d2565b9081526020016040518091039020600061108a91906135a8565b6003600582815481106110c6577f4e487b7100000000000000000000000000000000000000000000000000000000600052603260045260246000fd5b906000526020600020016040516110dd91906140d2565b908152602001604051809103902060006101000a81549073ffffffffffffffffffffffffffffffffffffffff021916905580806111199061477a565b915050611010565b506005600061113091906135e8565b7f1b7fda398be9c25418e2ac339e8384b89efcea0a3d7150e9817f64bb41ae597f60405160405180910390a1565b60016003811115611198577f4e487b7100000000000000000000000000000000000000000000000000000000600052602160045260246000fd5b6000803373ffffffffffffffffffffffffffffffffffffffff1673ffffffffffffffffffffffffffffffffffffffff16815260200190815260200160002060009054906101000a900460ff16600381111561121c577f4e487b7100000000000000000000000000000000000000000000000000000000600052602160045260246000fd5b1461125c576040517f08c379a00000000000000000000000000000000000000000000000000000000081526004016112539061433f565b60405180910390fd5b60006003811115611296577f4e487b7100000000000000000000000000000000000000000000000000000000600052602160045260246000fd5b6000808473ffffffffffffffffffffffffffffffffffffffff1673ffffffffffffffffffffffffffffffffffffffff16815260200190815260200160002060009054906101000a900460ff16600381111561131a577f4e487b7100000000000000000000000000000000000000000000000000000000600052602160045260246000fd5b1415611384576001829080600181540180825580915050600190039060005260206000200160009091909190916101000a81548173ffffffffffffffffffffffffffffffffffffffff021916908373ffffffffffffffffffffffffffffffffffffffff1602179055505b806000808473ffffffffffffffffffffffffffffffffffffffff1673ffffffffffffffffffffffffffffffffffffffff16815260200190815260200160002060006101000a81548160ff0219169083600381111561140b577f4e487b7100000000000000000000000000000000000000000000000000000000600052602160045260246000fd5b02179055507f4ac36fa53f167ceb85964be512e01de2a3b8bdb9862f917da079deeeff689b388282604051611441929190614104565b60405180910390a15050565b803373ffffffffffffffffffffffffffffffffffffffff1660038260405161147591906140bb565b908152602001604051809103902060009054906101000a900473ffffffffffffffffffffffffffffffffffffffff1673ffffffffffffffffffffffffffffffffffffffff1614806115815750600160038111156114fb577f4e487b7100000000000000000000000000000000000000000000000000000000600052602160045260246000fd5b6000803373ffffffffffffffffffffffffffffffffffffffff1673ffffffffffffffffffffffffffffffffffffffff16815260200190815260200160002060009054906101000a900460ff16600381111561157f577f4e487b7100000000000000000000000000000000000000000000000000000000600052602160045260246000fd5b145b6115c0576040517f08c379a00000000000000000000000000000000000000000000000000000000081526004016115b79061431f565b60405180910390fd5b60006002836040516115d291906140bb565b908152602001604051809103902080546115eb90614748565b9050141561162e576040517f08c379a00000000000000000000000000000000000000000000000000000000081526004016116259061435f565b60405180910390fd5b60028260405161163e91906140bb565b9081526020016040518091039020600061165891906135a8565b60038260405161166891906140bb565b908152602001604051809103902060006101000a81549073ffffffffffffffffffffffffffffffffffffffff021916905560005b60058054905081101561182f578280519060200120600582815481106116eb577f4e487b7100000000000000000000000000000000000000000000000000000000600052603260045260246000fd5b9060005260206000200160405161170291906140a4565b6040518091039020141561181c5760056001600580549050611724919061464c565b8154811061175b577f4e487b7100000000000000000000000000000000000000000000000000000000600052603260045260246000fd5b906000526020600020016005828154811061179f577f4e487b7100000000000000000000000000000000000000000000000000000000600052603260045260246000fd5b906000526020600020019080546117b590614748565b6117c0929190613609565b5060058054806117f9577f4e487b7100000000000000000000000000000000000000000000000000000000600052603160045260246000fd5b60019003818190600052602060002001600061181591906135a8565b905561182f565b80806118279061477a565b91505061169c565b506000600160048460405161184491906140bb565b90815260200160405180910390208054905061186091906145c5565b905060048360405161187291906140bb565b90815260200160405180910390206040518060a0016040528061189484613283565b81526020016118a242613283565b8152602001600260038111156118e1577f4e487b7100000000000000000000000000000000000000000000000000000000600052602160045260246000fd5b81526020016040518060200160405280600081525081526020013373ffffffffffffffffffffffffffffffffffffffff168152509080600181540180825580915050600190039060005260206000209060050201600090919091909150600082015181600001908051906020019061195a929190613522565b506020820151816001019080519060200190611977929190613522565b5060408201518160020160006101000a81548160ff021916908360038111156119c9577f4e487b7100000000000000000000000000000000000000000000000000000000600052602160045260246000fd5b021790555060608201518160030190805190602001906119ea929190613522565b5060808201518160040160006101000a81548173ffffffffffffffffffffffffffffffffffffffff021916908373ffffffffffffffffffffffffffffffffffffffff16021790555050507f37bae91d8106cb7b33a60e7e4a24a65093c57474d8799c7982203d7045a4e3bc8382604051611a659291906142cf565b60405180910390a1505050565b6060600482604051611a8491906140bb565b9081526020016040518091039020805480602002602001604051908101604052809291908181526020016000905b82821015611d7757838290600052602060002090600502016040518060a0016040529081600082018054611ae590614748565b80601f0160208091040260200160405190810160405280929190818152602001828054611b1190614748565b8015611b5e5780601f10611b3357610100808354040283529160200191611b5e565b820191906000526020600020905b815481529060010190602001808311611b4157829003601f168201915b50505050508152602001600182018054611b7790614748565b80601f0160208091040260200160405190810160405280929190818152602001828054611ba390614748565b8015611bf05780601f10611bc557610100808354040283529160200191611bf0565b820191906000526020600020905b815481529060010190602001808311611bd357829003601f168201915b505050505081526020016002820160009054906101000a900460ff166003811115611c44577f4e487b7100000000000000000000000000000000000000000000000000000000600052602160045260246000fd5b6003811115611c7c577f4e487b7100000000000000000000000000000000000000000000000000000000600052602160045260246000fd5b8152602001600382018054611c9090614748565b80601f0160208091040260200160405190810160405280929190818152602001828054611cbc90614748565b8015611d095780601f10611cde57610100808354040283529160200191611d09565b820191906000526020600020905b815481529060010190602001808311611cec57829003601f168201915b505050505081526020016004820160009054906101000a900473ffffffffffffffffffffffffffffffffffffffff1673ffffffffffffffffffffffffffffffffffffffff1673ffffffffffffffffffffffffffffffffffffffff168152505081526020019060010190611ab2565b505050509050919050565b60006020528060005260406000206000915054906101000a900460ff1681565b60606000805b600580549050811015611e8c578373ffffffffffffffffffffffffffffffffffffffff16600360058381548110611e08577f4e487b7100000000000000000000000000000000000000000000000000000000600052603260045260246000fd5b90600052602060002001604051611e1f91906140d2565b908152602001604051809103902060009054906101000a900473ffffffffffffffffffffffffffffffffffffffff1673ffffffffffffffffffffffffffffffffffffffff161415611e79578180611e759061477a565b9250505b8080611e849061477a565b915050611da8565b5060008167ffffffffffffffff811115611ecf577f4e487b7100000000000000000000000000000000000000000000000000000000600052604160045260246000fd5b604051908082528060200260200182016040528015611f0257816020015b6060815260200190600190039081611eed5790505b5090506000805b6005805490508110156120fe578573ffffffffffffffffffffffffffffffffffffffff16600360058381548110611f69577f4e487b7100000000000000000000000000000000000000000000000000000000600052603260045260246000fd5b90600052602060002001604051611f8091906140d2565b908152602001604051809103902060009054906101000a900473ffffffffffffffffffffffffffffffffffffffff1673ffffffffffffffffffffffffffffffffffffffff1614156120eb5760058181548110612005577f4e487b7100000000000000000000000000000000000000000000000000000000600052603260045260246000fd5b90600052602060002001805461201a90614748565b80601f016020809104026020016040519081016040528092919081815260200182805461204690614748565b80156120935780601f1061206857610100808354040283529160200191612093565b820191906000526020600020905b81548152906001019060200180831161207657829003601f168201915b50505050508383815181106120d1577f4e487b7100000000000000000000000000000000000000000000000000000000600052603260045260246000fd5b602002602001018190525081806120e79061477a565b9250505b80806120f69061477a565b915050611f09565b50819350505050919050565b6060600060028360405161211e91906140bb565b9081526020016040518091039020805461213790614748565b80601f016020809104026020016040519081016040528092919081815260200182805461216390614748565b80156121b05780601f10612185576101008083540402835291602001916121b0565b820191906000526020600020905b81548152906001019060200180831161219357829003601f168201915b50505050509050600060016004856040516121cb91906140bb565b9081526020016040518091039020805490506121e791906145c5565b90506004846040516121f991906140bb565b90815260200160405180910390206040518060a0016040528061221b84613283565b815260200161222942613283565b8152602001600380811115612267577f4e487b7100000000000000000000000000000000000000000000000000000000600052602160045260246000fd5b81526020018481526020013373ffffffffffffffffffffffffffffffffffffffff16815250908060018154018082558091505060019003906000526020600020906005020160009091909190915060008201518160000190805190602001906122d1929190613522565b5060208201518160010190805190602001906122ee929190613522565b5060408201518160020160006101000a81548160ff02191690836003811115612340577f4e487b7100000000000000000000000000000000000000000000000000000000600052602160045260246000fd5b02179055506060820151816003019080519060200190612361929190613522565b5060808201518160040160006101000a81548173ffffffffffffffffffffffffffffffffffffffff021916908373ffffffffffffffffffffffffffffffffffffffff16021790555050508192505050919050565b606080600060018054905067ffffffffffffffff8111156123ff577f4e487b7100000000000000000000000000000000000000000000000000000000600052604160045260246000fd5b60405190808252806020026020018201604052801561243257816020015b606081526020019060019003908161241d5790505b50905060005b6001805490508110156128fd576000805b6005805490508110156125915760018381548110612490577f4e487b7100000000000000000000000000000000000000000000000000000000600052603260045260246000fd5b9060005260206000200160009054906101000a900473ffffffffffffffffffffffffffffffffffffffff1673ffffffffffffffffffffffffffffffffffffffff1660036005838154811061250d577f4e487b7100000000000000000000000000000000000000000000000000000000600052603260045260246000fd5b9060005260206000200160405161252491906140d2565b908152602001604051809103902060009054906101000a900473ffffffffffffffffffffffffffffffffffffffff1673ffffffffffffffffffffffffffffffffffffffff16141561257e57818061257a9061477a565b9250505b80806125899061477a565b915050612449565b508067ffffffffffffffff8111156125d2577f4e487b7100000000000000000000000000000000000000000000000000000000600052604160045260246000fd5b60405190808252806020026020018201604052801561260557816020015b60608152602001906001900390816125f05790505b5083838151811061263f577f4e487b7100000000000000000000000000000000000000000000000000000000600052603260045260246000fd5b60200260200101819052506000805b6005805490508110156128e75760018481548110612695577f4e487b7100000000000000000000000000000000000000000000000000000000600052603260045260246000fd5b9060005260206000200160009054906101000a900473ffffffffffffffffffffffffffffffffffffffff1673ffffffffffffffffffffffffffffffffffffffff16600360058381548110612712577f4e487b7100000000000000000000000000000000000000000000000000000000600052603260045260246000fd5b9060005260206000200160405161272991906140d2565b908152602001604051809103902060009054906101000a900473ffffffffffffffffffffffffffffffffffffffff1673ffffffffffffffffffffffffffffffffffffffff1614156128d457600581815481106127ae577f4e487b7100000000000000000000000000000000000000000000000000000000600052603260045260246000fd5b9060005260206000200180546127c390614748565b80601f01602080910402602001604051908101604052809291908181526020018280546127ef90614748565b801561283c5780601f106128115761010080835404028352916020019161283c565b820191906000526020600020905b81548152906001019060200180831161281f57829003601f168201915b505050505085858151811061287a577f4e487b7100000000000000000000000000000000000000000000000000000000600052603260045260246000fd5b602002602001015183815181106128ba577f4e487b7100000000000000000000000000000000000000000000000000000000600052603260045260246000fd5b602002602001018190525081806128d09061477a565b9250505b80806128df9061477a565b91505061264e565b50505080806128f59061477a565b915050612438565b506001818180548060200260200160405190810160405280929190818152602001828054801561298257602002820191906000526020600020905b8160009054906101000a900473ffffffffffffffffffffffffffffffffffffffff1673ffffffffffffffffffffffffffffffffffffffff1681526020019060010190808311612938575b5050505050915092509250509091565b60006003826040516129a491906140bb565b908152602001604051809103902060009054906101000a900473ffffffffffffffffffffffffffffffffffffffff169050919050565b60608060016003811115612a17577f4e487b7100000000000000000000000000000000000000000000000000000000600052602160045260246000fd5b6000803373ffffffffffffffffffffffffffffffffffffffff1673ffffffffffffffffffffffffffffffffffffffff16815260200190815260200160002060009054906101000a900460ff166003811115612a9b577f4e487b7100000000000000000000000000000000000000000000000000000000600052602160045260246000fd5b14612adb576040517f08c379a0000000000000000000000000000000000000000000000000000000008152600401612ad29061433f565b60405180910390fd5b600060058054905067ffffffffffffffff811115612b22577f4e487b7100000000000000000000000000000000000000000000000000000000600052604160045260246000fd5b604051908082528060200260200182016040528015612b5557816020015b6060815260200190600190039081612b405790505b50905060005b600580549050811015612f0957600460058281548110612ba4577f4e487b7100000000000000000000000000000000000000000000000000000000600052603260045260246000fd5b90600052602060002001604051612bbb91906140d2565b9081526020016040518091039020805480602002602001604051908101604052809291908181526020016000905b82821015612eae57838290600052602060002090600502016040518060a0016040529081600082018054612c1c90614748565b80601f0160208091040260200160405190810160405280929190818152602001828054612c4890614748565b8015612c955780601f10612c6a57610100808354040283529160200191612c95565b820191906000526020600020905b815481529060010190602001808311612c7857829003601f168201915b50505050508152602001600182018054612cae90614748565b80601f0160208091040260200160405190810160405280929190818152602001828054612cda90614748565b8015612d275780601f10612cfc57610100808354040283529160200191612d27565b820191906000526020600020905b815481529060010190602001808311612d0a57829003601f168201915b505050505081526020016002820160009054906101000a900460ff166003811115612d7b577f4e487b7100000000000000000000000000000000000000000000000000000000600052602160045260246000fd5b6003811115612db3577f4e487b7100000000000000000000000000000000000000000000000000000000600052602160045260246000fd5b8152602001600382018054612dc790614748565b80601f0160208091040260200160405190810160405280929190818152602001828054612df390614748565b8015612e405780601f10612e1557610100808354040283529160200191612e40565b820191906000526020600020905b815481529060010190602001808311612e2357829003601f168201915b505050505081526020016004820160009054906101000a900473ffffffffffffffffffffffffffffffffffffffff1673ffffffffffffffffffffffffffffffffffffffff1673ffffffffffffffffffffffffffffffffffffffff168152505081526020019060010190612be9565b50505050828281518110612eeb577f4e487b7100000000000000000000000000000000000000000000000000000000600052603260045260246000fd5b60200260200101819052508080612f019061477a565b915050612b5b565b5060058181805480602002602001604051908101604052809291908181526020016000905b82821015612fda578382906000526020600020018054612f4d90614748565b80601f0160208091040260200160405190810160405280929190818152602001828054612f7990614748565b8015612fc65780601f10612f9b57610100808354040283529160200191612fc6565b820191906000526020600020905b815481529060010190602001808311612fa957829003601f168201915b505050505081526020019060010190612f2e565b50505050915092509250509091565b606080600060018054905067ffffffffffffffff811115613033577f4e487b7100000000000000000000000000000000000000000000000000000000600052604160045260246000fd5b6040519080825280602002602001820160405280156130615781602001602082028036833780820191505090505b50905060005b6001805490508110156131ee57600080600183815481106130b1577f4e487b7100000000000000000000000000000000000000000000000000000000600052603260045260246000fd5b9060005260206000200160009054906101000a900473ffffffffffffffffffffffffffffffffffffffff1673ffffffffffffffffffffffffffffffffffffffff1673ffffffffffffffffffffffffffffffffffffffff16815260200190815260200160002060009054906101000a900460ff1682828151811061315d577f4e487b7100000000000000000000000000000000000000000000000000000000600052603260045260246000fd5b6020026020010190600381111561319d577f4e487b7100000000000000000000000000000000000000000000000000000000600052602160045260246000fd5b908160038111156131d7577f4e487b7100000000000000000000000000000000000000000000000000000000600052602160045260246000fd5b8152505080806131e69061477a565b915050613067565b506001818180548060200260200160405190810160405280929190818152602001828054801561327357602002820191906000526020600020905b8160009054906101000a900473ffffffffffffffffffffffffffffffffffffffff1673ffffffffffffffffffffffffffffffffffffffff1681526020019060010190808311613229575b5050505050915092509250509091565b606060006064905060008167ffffffffffffffff8111156132cd577f4e487b7100000000000000000000000000000000000000000000000000000000600052604160045260246000fd5b6040519080825280601f01601f1916602001820160405280156132ff5781602001600182028036833780820191505090505b50905060005b600085146133b7576000600a8661331c91906147c3565b9050600a8661332b919061461b565b955080603061333a91906145c5565b60f81b8383806133499061477a565b945081518110613382577f4e487b7100000000000000000000000000000000000000000000000000000000600052603260045260246000fd5b60200101907effffffffffffffffffffffffffffffffffffffffffffffffffffffffffffff1916908160001a90535050613305565b60008167ffffffffffffffff8111156133f9577f4e487b7100000000000000000000000000000000000000000000000000000000600052604160045260246000fd5b6040519080825280601f01601f19166020018201604052801561342b5781602001600182028036833780820191505090505b50905060005b8281101561350f578360018285613448919061464c565b613452919061464c565b81518110613489577f4e487b7100000000000000000000000000000000000000000000000000000000600052603260045260246000fd5b602001015160f81c60f81b8282815181106134cd577f4e487b7100000000000000000000000000000000000000000000000000000000600052603260045260246000fd5b60200101907effffffffffffffffffffffffffffffffffffffffffffffffffffffffffffff1916908160001a90535080806135079061477a565b915050613431565b5060008190508095505050505050919050565b82805461352e90614748565b90600052602060002090601f0160209004810192826135505760008555613597565b82601f1061356957805160ff1916838001178555613597565b82800160010185558215613597579182015b8281111561359657825182559160200191906001019061357b565b5b5090506135a49190613696565b5090565b5080546135b490614748565b6000825580601f106135c657506135e5565b601f0160209004906000526020600020908101906135e49190613696565b5b50565b508054600082559060005260206000209081019061360691906136b3565b50565b82805461361590614748565b90600052602060002090601f0160209004810192826136375760008555613685565b82601f106136485780548555613685565b8280016001018555821561368557600052602060002091601f016020900482015b82811115613684578254825591600101919060010190613669565b5b5090506136929190613696565b5090565b5b808211156136af576000816000905550600101613697565b5090565b5b808211156136d357600081816136ca91906135a8565b506001016136b4565b5090565b60006136ea6136e5846143b0565b61437f565b90508281526020810184848401111561370257600080fd5b61370d848285614706565b509392505050565b60008135905061372481614918565b92915050565b6000813590506137398161492f565b92915050565b600082601f83011261375057600080fd5b81356137608482602086016136d7565b91505092915050565b6000813590506137788161493f565b92915050565b60006020828403121561379057600080fd5b600061379e84828501613715565b91505092915050565b600080604083850312156137ba57600080fd5b60006137c885828601613715565b92505060206137d98582860161372a565b9150509250929050565b6000602082840312156137f557600080fd5b600082013567ffffffffffffffff81111561380f57600080fd5b61381b8482850161373f565b91505092915050565b6000806040838503121561383757600080fd5b600083013567ffffffffffffffff81111561385157600080fd5b61385d8582860161373f565b925050602083013567ffffffffffffffff81111561387a57600080fd5b6138868582860161373f565b9150509250929050565b6000602082840312156138a257600080fd5b60006138b084828501613769565b91505092915050565b60006138c58383613939565b60208301905092915050565b60006138dd8383613afd565b905092915050565b60006138f18383613be7565b905092915050565b60006139058383613d5f565b60208301905092915050565b600061391d8383613d7d565b905092915050565b60006139318383614011565b905092915050565b61394281614680565b82525050565b61395181614680565b82525050565b60006139628261446a565b61396c8185614505565b9350613977836143e0565b8060005b838110156139a857815161398f88826138b9565b975061399a836144b7565b92505060018101905061397b565b5085935050505092915050565b60006139c082614475565b6139ca8185614516565b9350836020820285016139dc856143f0565b8060005b85811015613a1857848403895281516139f985826138d1565b9450613a04836144c4565b925060208a019950506001810190506139e0565b50829750879550505050505092915050565b6000613a3582614480565b613a3f8185614527565b935083602082028501613a5185614400565b8060005b85811015613a8d5784840389528151613a6e85826138e5565b9450613a79836144d1565b925060208a01995050600181019050613a55565b50829750879550505050505092915050565b6000613aaa8261448b565b613ab4818561457c565b9350613abf83614410565b8060005b83811015613af0578151613ad788826138f9565b9750613ae2836144de565b925050600181019050613ac3565b5085935050505092915050565b6000613b0882614496565b613b128185614538565b935083602082028501613b2485614420565b8060005b85811015613b605784840389528151613b418582613911565b9450613b4c836144eb565b925060208a01995050600181019050613b28565b50829750879550505050505092915050565b6000613b7d82614496565b613b878185614549565b935083602082028501613b9985614420565b8060005b85811015613bd55784840389528151613bb68582613911565b9450613bc1836144eb565b925060208a01995050600181019050613b9d565b50829750879550505050505092915050565b6000613bf2826144a1565b613bfc818561455a565b935083602082028501613c0e85614430565b8060005b85811015613c4a5784840389528151613c2b8582613925565b9450613c36836144f8565b925060208a01995050600181019050613c12565b50829750879550505050505092915050565b6000613c67826144a1565b613c71818561456b565b935083602082028501613c8385614430565b8060005b85811015613cbf5784840389528151613ca08582613925565b9450613cab836144f8565b925060208a01995050600181019050613c87565b50829750879550505050505092915050565b60008154613cde81614748565b613ce8818661458d565b94506001821660008114613d035760018114613d1457613d47565b60ff19831686528186019350613d47565b613d1d85614440565b60005b83811015613d3f57815481890152600182019150602081019050613d20565b838801955050505b50505092915050565b613d59816146e2565b82525050565b613d68816146f4565b82525050565b613d77816146f4565b82525050565b6000613d88826144ac565b613d928185614598565b9350613da2818560208601614715565b613dab816148df565b840191505092915050565b6000613dc1826144ac565b613dcb81856145a9565b9350613ddb818560208601614715565b613de4816148df565b840191505092915050565b6000613dfa826144ac565b613e0481856145ba565b9350613e14818560208601614715565b80840191505092915050565b60008154613e2d81614748565b613e3781866145ba565b94506001821660008114613e525760018114613e6357613e96565b60ff19831686528186019350613e96565b613e6c85614455565b60005b83811015613e8e57815481890152600182019150602081019050613e6f565b838801955050505b50505092915050565b6000613eac602c836145a9565b91507f4f6e6c792061646d696e206f72206c61777965722063616e20706572666f726d60008301527f207468697320616374696f6e00000000000000000000000000000000000000006020830152604082019050919050565b6000613f12602b836145a9565b91507f4f6e6c79206f776e6572206f722061646d696e2063616e20706572666f726d2060008301527f7468697320616374696f6e0000000000000000000000000000000000000000006020830152604082019050919050565b6000613f786022836145a9565b91507f4f6e6c792061646d696e2063616e20706572666f726d2074686973206163746960008301527f6f6e0000000000000000000000000000000000000000000000000000000000006020830152604082019050919050565b6000613fde6017836145a9565b91507f446f63756d656e7420646f6573206e6f742065786973740000000000000000006000830152602082019050919050565b600060a083016000830151848203600086015261402e8282613d7d565b915050602083015184820360208601526140488282613d7d565b915050604083015161405d6040860182613d50565b50606083015184820360608601526140758282613d7d565b915050608083015161408a6080860182613939565b508091505092915050565b61409e816146d8565b82525050565b60006140b08284613cd1565b915081905092915050565b60006140c78284613def565b915081905092915050565b60006140de8284613e20565b915081905092915050565b60006020820190506140fe6000830184613948565b92915050565b60006040820190506141196000830185613948565b6141266020830184613d6e565b9392505050565b600060408201905081810360008301526141478185613957565b9050818103602083015261415b81846139b5565b90509392505050565b6000604082019050818103600083015261417e8185613957565b905081810360208301526141928184613a9f565b90509392505050565b600060208201905081810360008301526141b58184613b72565b905092915050565b600060408201905081810360008301526141d78185613b72565b905081810360208301526141eb8184613a2a565b90509392505050565b6000604082019050818103600083015261420e8185613b72565b905081810360208301526142228184613b72565b90509392505050565b600060208201905081810360008301526142458184613c5c565b905092915050565b60006020820190506142626000830184613d6e565b92915050565b600060208201905081810360008301526142828184613db6565b905092915050565b600060608201905081810360008301526142a48186613db6565b905081810360208301526142b88185613db6565b90506142c76040830184614095565b949350505050565b600060408201905081810360008301526142e98185613db6565b90506142f86020830184614095565b9392505050565b6000602082019050818103600083015261431881613e9f565b9050919050565b6000602082019050818103600083015261433881613f05565b9050919050565b6000602082019050818103600083015261435881613f6b565b9050919050565b6000602082019050818103600083015261437881613fd1565b9050919050565b6000604051905081810181811067ffffffffffffffff821117156143a6576143a56148b0565b5b8060405250919050565b600067ffffffffffffffff8211156143cb576143ca6148b0565b5b601f19601f8301169050602081019050919050565b6000819050602082019050919050565b6000819050602082019050919050565b6000819050602082019050919050565b6000819050602082019050919050565b6000819050602082019050919050565b6000819050602082019050919050565b60008190508160005260206000209050919050565b60008190508160005260206000209050919050565b600081519050919050565b600081519050919050565b600081519050919050565b600081519050919050565b600081519050919050565b600081519050919050565b600081519050919050565b6000602082019050919050565b6000602082019050919050565b6000602082019050919050565b6000602082019050919050565b6000602082019050919050565b6000602082019050919050565b600082825260208201905092915050565b600082825260208201905092915050565b600082825260208201905092915050565b600082825260208201905092915050565b600082825260208201905092915050565b600082825260208201905092915050565b600082825260208201905092915050565b600082825260208201905092915050565b600081905092915050565b600082825260208201905092915050565b600082825260208201905092915050565b600081905092915050565b60006145d0826146d8565b91506145db836146d8565b9250827fffffffffffffffffffffffffffffffffffffffffffffffffffffffffffffffff038211156146105761460f6147f4565b5b828201905092915050565b6000614626826146d8565b9150614631836146d8565b92508261464157614640614823565b5b828204905092915050565b6000614657826146d8565b9150614662836146d8565b925082821015614675576146746147f4565b5b828203905092915050565b600061468b826146b8565b9050919050565b60008190506146a0826148f0565b919050565b60008190506146b382614904565b919050565b600073ffffffffffffffffffffffffffffffffffffffff82169050919050565b6000819050919050565b60006146ed82614692565b9050919050565b60006146ff826146a5565b9050919050565b82818337600083830152505050565b60005b83811015614733578082015181840152602081019050614718565b83811115614742576000848401525b50505050565b6000600282049050600182168061476057607f821691505b6020821081141561477457614773614881565b5b50919050565b6000614785826146d8565b91507fffffffffffffffffffffffffffffffffffffffffffffffffffffffffffffffff8214156147b8576147b76147f4565b5b600182019050919050565b60006147ce826146d8565b91506147d9836146d8565b9250826147e9576147e8614823565b5b828206905092915050565b7f4e487b7100000000000000000000000000000000000000000000000000000000600052601160045260246000fd5b7f4e487b7100000000000000000000000000000000000000000000000000000000600052601260045260246000fd5b7f4e487b7100000000000000000000000000000000000000000000000000000000600052602160045260246000fd5b7f4e487b7100000000000000000000000000000000000000000000000000000000600052602260045260246000fd5b7f4e487b7100000000000000000000000000000000000000000000000000000000600052604160045260246000fd5b6000601f19601f8301169050919050565b6004811061490157614900614852565b5b50565b6004811061491557614914614852565b5b50565b61492181614680565b811461492c57600080fd5b50565b6004811061493c57600080fd5b50565b614948816146d8565b811461495357600080fd5b5056fea2646970667358221220e37451a45b858c01e8ab2c959f6dd28b93f9724850fabb1a4ba91fb3c8aabd0564736f6c63430008000033",
  "immutableReferences": {},
  "source": "// SPDX-License-Identifier: MIT\r\npragma solidity ^0.8.0;\r\n\r\ncontract DocumentStorage {\r\n    enum Role { None, Admin, Lawyer, Client }\r\n    enum Action { Uploaded, Modified, Deleted, Retrieved }\r\n\r\n    struct DocumentHistory {\r\n        string version;\r\n        string timestamp;\r\n        Action action;\r\n        string documentHash;\r\n        address user;\r\n    }\r\n\r\n    mapping(address => Role) public userRoles;\r\n    address[] public users;\r\n\r\n    mapping(string => string) private documentHashes;\r\n    mapping(string => address) private documentOwners; \r\n    mapping(string => DocumentHistory[]) private documentHistories; \r\n    string[] private documentIds;\r\n\r\n    event DocumentHashStored(string documentId, string documentHash, uint256 version);\r\n    event DocumentHashModified(string documentId, string newDocumentHash, uint256 version);\r\n    event DocumentDeleted(string documentId, uint256 version);\r\n    event AllDocumentsRemoved();\r\n    event RoleAssigned(address user, Role role);\r\n\r\n    modifier onlyAdmin() {\r\n        require(userRoles[msg.sender] == Role.Admin, \"Only admin can perform this action\");\r\n        _;\r\n    }\r\n\r\n    modifier onlyAdminOrLawyer() {\r\n        require(userRoles[msg.sender] == Role.Admin || userRoles[msg.sender] == Role.Lawyer, \"Only admin or lawyer can perform this action\");\r\n        _;\r\n    }\r\n\r\n    modifier onlyOwnerOrAdmin(string memory documentId) {\r\n        require(documentOwners[documentId] == msg.sender || userRoles[msg.sender] == Role.Admin, \"Only owner or admin can perform this action\");\r\n        _;\r\n    }\r\n\r\n    constructor() {\r\n        userRoles[msg.sender] = Role.Admin;\r\n        users.push(msg.sender);\r\n    }\r\n\r\n    function storeDocumentHash(string memory documentId, string memory documentHash) public onlyAdminOrLawyer {\r\n        documentHashes[documentId] = documentHash;\r\n        documentOwners[documentId] = msg.sender; \r\n        documentIds.push(documentId);\r\n        uint256 version = documentHistories[documentId].length + 1;\r\n        documentHistories[documentId].push(DocumentHistory(\r\n            uintToString(version), \r\n            uintToString(block.timestamp), \r\n            Action.Uploaded, \r\n            documentHash, \r\n            msg.sender\r\n        ));\r\n        emit DocumentHashStored(documentId, documentHash, version);\r\n    }\r\n\r\n    function getDocumentHash(string memory documentId) public returns (string memory) {\r\n        string memory hash = documentHashes[documentId];\r\n        uint256 version = documentHistories[documentId].length + 1;\r\n        documentHistories[documentId].push(DocumentHistory(\r\n            uintToString(version), \r\n            uintToString(block.timestamp), \r\n            Action.Retrieved, \r\n            hash, \r\n            msg.sender\r\n        ));\r\n        return hash;\r\n    }\r\n\r\n    function getAllDocumentHashes() public view returns (string[] memory, string[] memory) {\r\n        string[] memory hashes = new string[](documentIds.length);\r\n        for (uint i = 0; i < documentIds.length; i++) {\r\n            hashes[i] = documentHashes[documentIds[i]];\r\n        }\r\n        return (documentIds, hashes);\r\n    }\r\n\r\n    function modifyDocumentHash(string memory documentId, string memory newDocumentHash) public onlyOwnerOrAdmin(documentId) {\r\n        require(bytes(documentHashes[documentId]).length != 0, \"Document does not exist\");\r\n        documentHashes[documentId] = newDocumentHash;\r\n        uint256 version = documentHistories[documentId].length + 1;\r\n        documentHistories[documentId].push(DocumentHistory(\r\n            uintToString(version), \r\n            uintToString(block.timestamp), \r\n            Action.Modified, \r\n            newDocumentHash, \r\n            msg.sender\r\n        ));\r\n        emit DocumentHashModified(documentId, newDocumentHash, version);\r\n    }\r\n\r\n    function deleteDocument(string memory documentId) public onlyOwnerOrAdmin(documentId) {\r\n        require(bytes(documentHashes[documentId]).length != 0, \"Document does not exist\");\r\n        delete documentHashes[documentId];\r\n        delete documentOwners[documentId];\r\n        for (uint i = 0; i < documentIds.length; i++) {\r\n            if (keccak256(bytes(documentIds[i])) == keccak256(bytes(documentId))) {\r\n                documentIds[i] = documentIds[documentIds.length - 1];\r\n                documentIds.pop();\r\n                break;\r\n            }\r\n        }\r\n        uint256 version = documentHistories[documentId].length + 1;\r\n        documentHistories[documentId].push(DocumentHistory(\r\n            uintToString(version), \r\n            uintToString(block.timestamp), \r\n            Action.Deleted, \r\n            \"\", \r\n            msg.sender\r\n        ));\r\n        emit DocumentDeleted(documentId, version);\r\n    }\r\n\r\n    function removeAllDocuments() public onlyAdmin {\r\n        for (uint i = 0; i < documentIds.length; i++) {\r\n            delete documentHashes[documentIds[i]];\r\n            delete documentOwners[documentIds[i]];\r\n        }\r\n        delete documentIds;\r\n        emit AllDocumentsRemoved();\r\n    }\r\n\r\n    function assignRole(address user, Role role) public onlyAdmin {\r\n        if (userRoles[user] == Role.None) {\r\n            users.push(user);\r\n        }\r\n        userRoles[user] = role;\r\n        emit RoleAssigned(user, role);\r\n    }\r\n\r\n    function getAllRoles() public view returns (address[] memory, Role[] memory) {\r\n        Role[] memory roles = new Role[](users.length);\r\n        for (uint i = 0; i < users.length; i++) {\r\n            roles[i] = userRoles[users[i]];\r\n        }\r\n        return (users, roles);\r\n    }\r\n\r\n    function getDocumentOwner(string memory documentId) public view returns (address) {\r\n        return documentOwners[documentId];\r\n    }\r\n\r\n    function getDocumentHistory(string memory documentId) public view returns (DocumentHistory[] memory) {\r\n        return documentHistories[documentId];\r\n    }\r\n\r\n    function getDocumentsByOwner(address owner) public view returns (string[] memory) {\r\n        uint count = 0;\r\n        for (uint i = 0; i < documentIds.length; i++) {\r\n            if (documentOwners[documentIds[i]] == owner) {\r\n                count++;\r\n            }\r\n        }\r\n\r\n        string[] memory ownerDocuments = new string[](count);\r\n        uint index = 0;\r\n        for (uint i = 0; i < documentIds.length; i++) {\r\n            if (documentOwners[documentIds[i]] == owner) {\r\n                ownerDocuments[index] = documentIds[i];\r\n                index++;\r\n            }\r\n        }\r\n\r\n        return ownerDocuments;\r\n    }\r\n\r\n    function uintToString(uint v) private pure returns (string memory) {\r\n        uint maxlength = 100;\r\n        bytes memory reversed = new bytes(maxlength);\r\n        uint i = 0;\r\n        while (v != 0) {\r\n            uint remainder = v % 10;\r\n            v = v / 10;\r\n            reversed[i++] = bytes1(uint8(48 + remainder));\r\n        }\r\n        bytes memory s = new bytes(i); // i + 1 is inefficient\r\n        for (uint j = 0; j < i; j++) {\r\n            s[j] = reversed[i - j - 1]; // to get the correct order\r\n        }\r\n        string memory str = string(s);  // memory isn't implicitly convertible to storage\r\n        return str;\r\n    }\r\n\r\n    function getAllUserFiles() public view returns (address[] memory, string[][] memory) {\r\n        string[][] memory userFiles = new string[][](users.length);\r\n        for (uint i = 0; i < users.length; i++) {\r\n            uint count = 0;\r\n            for (uint j = 0; j < documentIds.length; j++) {\r\n                if (documentOwners[documentIds[j]] == users[i]) {\r\n                    count++;\r\n                }\r\n            }\r\n            userFiles[i] = new string[](count);\r\n            uint index = 0;\r\n            for (uint j = 0; j < documentIds.length; j++) {\r\n                if (documentOwners[documentIds[j]] == users[i]) {\r\n                    userFiles[i][index] = documentIds[j];\r\n                    index++;\r\n                }\r\n            }\r\n        }\r\n        return (users, userFiles);\r\n    }\r\n\r\n    function getAllDocumentHistories() public view onlyAdmin returns (string[] memory, DocumentHistory[][] memory) {\r\n        DocumentHistory[][] memory histories = new DocumentHistory[][](documentIds.length);\r\n        for (uint i = 0; i < documentIds.length; i++) {\r\n            histories[i] = documentHistories[documentIds[i]];\r\n        }\r\n        return (documentIds, histories);\r\n    }\r\n}",
  "sourcePath": "C:\\Users\\m_d_v\\OneDrive\\Desktop\\varun\\crud-project\\backend\\contracts\\DocumentStorage.sol",
  "compiler": {
    "name": "solc",
    "version": "0.8.0+commit.c7dfd78e.Emscripten.clang"
  },
  "schemaVersion": "3.4.16",
  "updatedAt": "2024-07-14T12:33:51.833Z",
  "networkType": "ethereum",
  "devdoc": {
    "kind": "dev",
    "methods": {},
    "version": 1
  },
  "userdoc": {
    "kind": "user",
    "methods": {},
    "version": 1
  }
}